:1000000000308A001928000026308400831300087D
:10001000031918280330F800F701F70B0D28F80B27
:100020000C28E330F700F70B13280000800B0A2898
:10003000080003081F398300A2014D308316990080
:10004000A6309800903083129800FF30A5008316E8
:100050001F149F141F159F1107309C0083138312D8
:10006000A001A10183161F1383121F139F1783166C
:100070009F1383121F1483161F109F141F159F15A3
:100080000030F80083121F08C73978049F0025113B
:10009000250883168700831207110C309700003063
:1000A000F800063892003E308316920064308312C6
:1000B000A60004201F151F195B28A4011E08A30019
:1000C0002408F9002308F800F90CF80CF90CF80CD6
:1000D000F90C78089500F90C790C3039F7001708FD
:1000E000CF39770497000A30A60004205A2863000D
:02400E00723FFF
:00000001FF
;PIC16F877A
;CRC=9F8A  CREATED="05-May-21 15:14"
