:1000000000308A004C280000C7225410AF39F43069
:10001000F43A7310482A5428AF18AE180D05C837A3
:10002000733A3A10B11C3217311B38173417B10626
:100030008A060A00412AAB214928532A4129D41EA5
:10004000222A43282216A21273112C1CB0060A0081
:10005000412AAB214928D3224E22BD12E9060A00CB
:10006000412AAB2149284326CF29C5060A0036304C
:1000700084008313000803194B280330F800F701AC
:10008000F70B4028F80B3F28E330F700F70B462822
:100090000000800B3D28080003081F398300A201DF
:1000A0004D3083169900A630980090308312980046
:1000B000B401B301FF30B50083161F149F141F1540
:1000C0009F1107309C0083138312A001A1013130DE
:1000D000A7003930A8003230A9002E30AA003130F4
:1000E000AB003630AC003830AD002E30AE003430CE
:1000F000AF002E30B0003130B100B201A601273080
:10010000A50083161F1383121F139F1783169F13B7
:1001100083121F1483161F109F141F159F15003084
:10012000F80083121F08C73978049F00351135087D
:1001300083168700831207110C3097000030F800F7
:10014000063892007D308316920064308312B60028
:1001500037201F151F19AA28A4011E08A300240870
:10016000F9002308F800F90CF80CF90CF80CF90C5C
:1001700078089500F90C790C3039F7001708CF3959
:0E018000770497000A30B6003720A9286300E4
:02400E00723FFF
:00000001FF
;PIC16F877A
;CRC=3866  CREATED="28-Mar-21 17:50"
