:1000000000308A0019280000233084008313000880
:10001000031918280330F800F701F70B0D28F80B27
:100020000C28E330F700F70B13280000800B0A2898
:10003000080003081F398300FF30A20083161F1435
:100040009F141F159F1107309C0083131F138312E9
:100050001F139F1783169F1783121F1483161F10D9
:100060009F141F159F150030F80083121F08C73911
:1000700078049F002211220883168700831207113B
:100080000C3097000030F800063892007D3083165F
:10009000920064308312A30004201F151F194E28FC
:1000A00083161E088312A0001E08A1002108F90073
:1000B0002008F800F90CF80CF90CF80CF90C780889
:1000C0009500F90C790C3039F7001708CF3977040F
:0C00D00097000A30A30004204D286300B4
:02400E00723FFF
:00000001FF
;PIC16F877A
;CRC=F271  CREATED="05-Mar-21 13:48"
