:1000000000308A003B280000FF00030E8301A1009E
:100010000A08A0008A010408A2007708A300780853
:10002000A4007908A5007A08A600831383128C30F7
:100030008400801E1D288C1A2E2822088400230884
:10004000F7002408F8002508F9002608FA0020081F
:100050008A00210E8300FF0E7F0E09008A110A120A
:1000600031288C1E31281A08A8002808A7008C12F5
:100070008A110A121D2803081F39830019308316BC
:100080009900A2309800903083129800A70183163F
:100090001F149F141F159F1107309C0083134F28B6
:0200A0006300FB
:02400E007A3FF7
:00000001FF
;PIC16F877A
;CRC=82A9  CREATED="14-Mar-21 12:14"
